{
    "contractName": "CryptoRide",
    "abi": [
        {
            "inputs": [
                {
                    "internalType": "uint16",
                    "name": "_id",
                    "type": "uint16"
                }
            ],
            "name": "bidForRide",
            "outputs": [],
            "stateMutability": "payable",
            "type": "function"
        },
        {
            "inputs": [
                {
                    "internalType": "address",
                    "name": "",
                    "type": "address"
                },
                {
                    "internalType": "uint256",
                    "name": "",
                    "type": "uint256"
                }
            ],
            "name": "driverToIds",
            "outputs": [
                {
                    "internalType": "uint16",
                    "name": "",
                    "type": "uint16"
                }
            ],
            "stateMutability": "view",
            "type": "function"
        },
        {
            "inputs": [
                {
                    "internalType": "uint16",
                    "name": "_id",
                    "type": "uint16"
                }
            ],
            "name": "getAvSeats",
            "outputs": [
                {
                    "internalType": "uint16",
                    "name": "",
                    "type": "uint16"
                }
            ],
            "stateMutability": "view",
            "type": "function"
        },
        {
            "inputs": [
                {
                    "internalType": "uint16",
                    "name": "_id",
                    "type": "uint16"
                }
            ],
            "name": "getAvailable",
            "outputs": [
                {
                    "internalType": "bool",
                    "name": "",
                    "type": "bool"
                }
            ],
            "stateMutability": "view",
            "type": "function"
        },
        {
            "inputs": [
                {
                    "internalType": "uint16",
                    "name": "_id",
                    "type": "uint16"
                }
            ],
            "name": "getBaseCost",
            "outputs": [
                {
                    "internalType": "uint256",
                    "name": "",
                    "type": "uint256"
                }
            ],
            "stateMutability": "view",
            "type": "function"
        },
        {
            "inputs": [
                {
                    "internalType": "uint16",
                    "name": "_id",
                    "type": "uint16"
                },
                {
                    "internalType": "address",
                    "name": "_bidder",
                    "type": "address"
                }
            ],
            "name": "getBid",
            "outputs": [
                {
                    "internalType": "uint256",
                    "name": "",
                    "type": "uint256"
                }
            ],
            "stateMutability": "view",
            "type": "function"
        },
        {
            "inputs": [
                {
                    "internalType": "uint16",
                    "name": "_id",
                    "type": "uint16"
                }
            ],
            "name": "getBiddingEndTime",
            "outputs": [
                {
                    "internalType": "uint256",
                    "name": "",
                    "type": "uint256"
                }
            ],
            "stateMutability": "view",
            "type": "function"
        },
        {
            "inputs": [
                {
                    "internalType": "uint16",
                    "name": "_id",
                    "type": "uint16"
                }
            ],
            "name": "getBiddingTime",
            "outputs": [
                {
                    "internalType": "uint256",
                    "name": "",
                    "type": "uint256"
                }
            ],
            "stateMutability": "view",
            "type": "function"
        },
        {
            "inputs": [
                {
                    "internalType": "uint16",
                    "name": "_id",
                    "type": "uint16"
                }
            ],
            "name": "getDriver",
            "outputs": [
                {
                    "internalType": "address",
                    "name": "",
                    "type": "address"
                }
            ],
            "stateMutability": "view",
            "type": "function"
        },
        {
            "inputs": [
                {
                    "internalType": "uint16",
                    "name": "_id",
                    "type": "uint16"
                }
            ],
            "name": "getFromTime",
            "outputs": [
                {
                    "internalType": "string",
                    "name": "",
                    "type": "string"
                }
            ],
            "stateMutability": "view",
            "type": "function"
        },
        {
            "inputs": [
                {
                    "internalType": "uint16",
                    "name": "_id",
                    "type": "uint16"
                }
            ],
            "name": "getHighestBidder",
            "outputs": [
                {
                    "internalType": "address",
                    "name": "",
                    "type": "address"
                }
            ],
            "stateMutability": "view",
            "type": "function"
        },
        {
            "inputs": [
                {
                    "internalType": "uint16",
                    "name": "_id",
                    "type": "uint16"
                }
            ],
            "name": "getLocation",
            "outputs": [
                {
                    "internalType": "string",
                    "name": "",
                    "type": "string"
                }
            ],
            "stateMutability": "view",
            "type": "function"
        },
        {
            "inputs": [
                {
                    "internalType": "uint16",
                    "name": "_id",
                    "type": "uint16"
                }
            ],
            "name": "getPayed",
            "outputs": [
                {
                    "internalType": "bool",
                    "name": "",
                    "type": "bool"
                }
            ],
            "stateMutability": "view",
            "type": "function"
        },
        {
            "inputs": [
                {
                    "internalType": "uint16",
                    "name": "_id",
                    "type": "uint16"
                },
                {
                    "internalType": "address",
                    "name": "_bidder",
                    "type": "address"
                }
            ],
            "name": "getPreviousBid",
            "outputs": [
                {
                    "internalType": "uint256",
                    "name": "",
                    "type": "uint256"
                }
            ],
            "stateMutability": "view",
            "type": "function"
        },
        {
            "inputs": [
                {
                    "internalType": "uint16",
                    "name": "_id",
                    "type": "uint16"
                }
            ],
            "name": "getRider",
            "outputs": [
                {
                    "internalType": "address",
                    "name": "",
                    "type": "address"
                }
            ],
            "stateMutability": "view",
            "type": "function"
        },
        {
            "inputs": [
                {
                    "internalType": "uint16",
                    "name": "_id",
                    "type": "uint16"
                }
            ],
            "name": "getToTime",
            "outputs": [
                {
                    "internalType": "string",
                    "name": "",
                    "type": "string"
                }
            ],
            "stateMutability": "view",
            "type": "function"
        },
        {
            "inputs": [
                {
                    "internalType": "uint16",
                    "name": "",
                    "type": "uint16"
                }
            ],
            "name": "idToRide",
            "outputs": [
                {
                    "internalType": "address",
                    "name": "highestBidder",
                    "type": "address"
                },
                {
                    "internalType": "address",
                    "name": "rider",
                    "type": "address"
                },
                {
                    "internalType": "address payable",
                    "name": "driver",
                    "type": "address"
                },
                {
                    "internalType": "bool",
                    "name": "available",
                    "type": "bool"
                },
                {
                    "internalType": "bool",
                    "name": "payed",
                    "type": "bool"
                },
                {
                    "internalType": "string",
                    "name": "fromTime",
                    "type": "string"
                },
                {
                    "internalType": "string",
                    "name": "toTime",
                    "type": "string"
                },
                {
                    "internalType": "string",
                    "name": "location",
                    "type": "string"
                },
                {
                    "internalType": "uint256",
                    "name": "baseCost",
                    "type": "uint256"
                },
                {
                    "internalType": "uint256",
                    "name": "biddingTime",
                    "type": "uint256"
                },
                {
                    "internalType": "uint256",
                    "name": "biddingEndTime",
                    "type": "uint256"
                },
                {
                    "internalType": "uint16",
                    "name": "avSeats",
                    "type": "uint16"
                }
            ],
            "stateMutability": "view",
            "type": "function"
        },
        {
            "inputs": [
                {
                    "internalType": "uint16",
                    "name": "_id",
                    "type": "uint16"
                },
                {
                    "internalType": "string",
                    "name": "_fromTime",
                    "type": "string"
                },
                {
                    "internalType": "string",
                    "name": "_toTime",
                    "type": "string"
                },
                {
                    "internalType": "string",
                    "name": "_location",
                    "type": "string"
                },
                {
                    "internalType": "uint256",
                    "name": "_baseCost",
                    "type": "uint256"
                },
                {
                    "internalType": "uint256",
                    "name": "_biddingTime",
                    "type": "uint256"
                },
                {
                    "internalType": "uint16",
                    "name": "_avSeats",
                    "type": "uint16"
                }
            ],
            "name": "publishRide",
            "outputs": [],
            "stateMutability": "nonpayable",
            "type": "function"
        },
        {
            "inputs": [
                {
                    "internalType": "uint16",
                    "name": "_id",
                    "type": "uint16"
                }
            ],
            "name": "startRide",
            "outputs": [],
            "stateMutability": "nonpayable",
            "type": "function"
        }
    ],
    "bytecode": "608060405234801561001057600080fd5b506112ab806100206000396000f3fe6080604052600436106101145760003560e01c80637598b925116100a0578063d18db88911610064578063d18db8891461043f578063d974add51461045f578063f429568c1461047f578063f5cee0ca146104b3578063f7acbe2e146104d357600080fd5b80637598b9251461031a57806379a64ca5146103515780637aa7d1d81461038e5780637b9db006146103ae5780637c336569146103f557600080fd5b80633e78e81f116100e75780633e78e81f1461023d57806350e4dfa6146102715780635d53f9371461028657806368e14cd8146102ba5780637238d50d146102e757600080fd5b806311c837191461011957806321f77dac1461017357806322b473d2146101c85780632f0cfec014610205575b600080fd5b34801561012557600080fd5b50610156610134366004610f2e565b61ffff166000908152602081905260409020600401546001600160a01b031690565b6040516001600160a01b0390911681526020015b60405180910390f35b34801561017f57600080fd5b506101ba61018e366004610f67565b61ffff82166000908152602081815260408083206001600160a01b038516845290915290205492915050565b60405190815260200161016a565b3480156101d457600080fd5b506101566101e3366004610f2e565b61ffff166000908152602081905260409020600201546001600160a01b031690565b34801561021157600080fd5b50610225610220366004610f2e565b61050f565b60405161016a9c9b9a99989796959493929190610fe7565b34801561024957600080fd5b506101ba610258366004610f2e565b61ffff166000908152602081905260409020600a015490565b61028461027f366004610f2e565b610721565b005b34801561029257600080fd5b506101ba6102a1366004610f2e565b61ffff166000908152602081905260409020600c015490565b3480156102c657600080fd5b506102da6102d5366004610f2e565b6108aa565b60405161016a919061108b565b3480156102f357600080fd5b5061030761030236600461109e565b610954565b60405161ffff909116815260200161016a565b34801561032657600080fd5b50610307610335366004610f2e565b61ffff9081166000908152602081905260409020600d01541690565b34801561035d57600080fd5b5061015661036c366004610f2e565b61ffff166000908152602081905260409020600301546001600160a01b031690565b34801561039a57600080fd5b506102846103a9366004610f2e565b61099b565b3480156103ba57600080fd5b506103e56103c9366004610f2e565b61ffff1660009081526020819052604090206006015460ff1690565b604051901515815260200161016a565b34801561040157600080fd5b506101ba610410366004610f67565b61ffff82166000908152602081815260408083206001600160a01b038516845260010190915290205492915050565b34801561044b57600080fd5b506102da61045a366004610f2e565b610d0a565b34801561046b57600080fd5b506102da61047a366004610f2e565b610d2f565b34801561048b57600080fd5b506101ba61049a366004610f2e565b61ffff166000908152602081905260409020600b015490565b3480156104bf57600080fd5b506102846104ce366004611111565b610d54565b3480156104df57600080fd5b506103e56104ee366004610f2e565b61ffff16600090815260208190526040902060060154610100900460ff1690565b600060208190529081526040902060028101546003820154600483015460068401546007850180546001600160a01b0395861696948616959093169360ff808416946101009094041692909190610565906111de565b80601f0160208091040260200160405190810160405280929190818152602001828054610591906111de565b80156105de5780601f106105b3576101008083540402835291602001916105de565b820191906000526020600020905b8154815290600101906020018083116105c157829003601f168201915b5050505050908060080180546105f3906111de565b80601f016020809104026020016040519081016040528092919081815260200182805461061f906111de565b801561066c5780601f106106415761010080835404028352916020019161066c565b820191906000526020600020905b81548152906001019060200180831161064f57829003601f168201915b505050505090806009018054610681906111de565b80601f01602080910402602001604051908101604052809291908181526020018280546106ad906111de565b80156106fa5780601f106106cf576101008083540402835291602001916106fa565b820191906000526020600020905b8154815290600101906020018083116106dd57829003601f168201915b50505050600a830154600b840154600c850154600d909501549394919390925061ffff168c565b61ffff81166000908152602081905260409020600c01548190421061075f5761ffff81166000908152602081905260409020600601805460ff191690555b61ffff811660009081526020819052604090206006015460ff16151560011461078757600080fd5b61ffff82166000908152602081905260409020600201546001600160a01b031633036107b257600080fd5b61ffff821660009081526020818152604080832060028101546001600160a01b0316845290915290205434116107e757600080fd5b61ffff82166000908152602081905260409020600a015434101561080a57600080fd5b61ffff82166000908152602081815260408083203384529091529020541561086b5761ffff8216600090815260208181526040808320338452808352818420546001909101909252822080549192909161086590849061122e565b90915550505b5061ffff1660008181526020818152604080832033808552818452918420349055938352919052600290910180546001600160a01b0319169091179055565b61ffff811660009081526020819052604090206008018054606091906108cf906111de565b80601f01602080910402602001604051908101604052809291908181526020018280546108fb906111de565b80156109485780601f1061091d57610100808354040283529160200191610948565b820191906000526020600020905b81548152906001019060200180831161092b57829003601f168201915b50505050509050919050565b6001602052816000526040600020818154811061097057600080fd5b9060005260206000209060109182820401919006600202915091509054906101000a900461ffff1681565b61ffff81166000908152602081905260409020600c0154819042106109d95761ffff81166000908152602081905260409020600601805460ff191690555b61ffff811660009081526020819052604090206006015460ff16156109fd57600080fd5b61ffff8116600090815260208190526040902060060154610100900460ff1615610a2657600080fd5b61ffff82166000908152602081905260409020600401546001600160a01b03163314610a5157600080fd5b60005b61ffff8316600090815260208190526040902060050154811015610cbe5761ffff831660009081526020819052604090206002810154600590910180546001600160a01b039092169183908110610aad57610aad611246565b6000918252602090912001546001600160a01b031603610b2a5761ffff8316600090815260208181526040808320600481015460028201546001600160a01b0390811686529190935281842054915192169281156108fc029290818181858888f19350505050158015610b24573d6000803e3d6000fd5b50610cac565b61ffff83166000908152602081905260409020600501805482908110610b5257610b52611246565b600091825260208083209091015461ffff8616835290829052604082206005810180546001600160a01b03909316936108fc9390919086908110610b9857610b98611246565b60009182526020808320909101546001600160a01b03168352820192909252604090810182205490518115909302929091818181858888f19350505050158015610be6573d6000803e3d6000fd5b5061ffff83166000908152602081905260409020600501805482908110610c0f57610c0f611246565b600091825260208083209091015461ffff8616835290829052604082206005810180546001600160a01b03909316936108fc936001939093019290919086908110610c5c57610c5c611246565b60009182526020808320909101546001600160a01b03168352820192909252604090810182205490518115909302929091818181858888f19350505050158015610caa573d6000803e3d6000fd5b505b80610cb68161125c565b915050610a54565b505061ffff16600090815260208190526040902060028101546003820180546001600160a01b0319166001600160a01b03909216919091179055600601805461ff001916610100179055565b61ffff811660009081526020819052604090206009018054606091906108cf906111de565b61ffff811660009081526020819052604090206007018054606091906108cf906111de565b61ffff8a1660009081526020819052604090206004810180546001600160a01b0319163317905560068101805461ffff19166001179055610d99906007018a8a610e7e565b5061ffff8a166000908152602081905260409020610dbb906008018888610e7e565b5061ffff8a166000908152602081905260409020610ddd906009018686610e7e565b5061ffff8a81166000908152602081905260409020600a8101859055600d8101805461ffff191692841692909217909155600b01829055610e1e824261122e565b61ffff9a8b16600081815260208181526040808320600c01949094553382526001808252938220805494850181558252902060108304018054600f9093166002026101000a9c8d02199092169b029a909a17909955505050505050505050565b828054610e8a906111de565b90600052602060002090601f016020900481019282610eac5760008555610ef2565b82601f10610ec55782800160ff19823516178555610ef2565b82800160010185558215610ef2579182015b82811115610ef2578235825591602001919060010190610ed7565b50610efe929150610f02565b5090565b5b80821115610efe5760008155600101610f03565b803561ffff81168114610f2957600080fd5b919050565b600060208284031215610f4057600080fd5b610f4982610f17565b9392505050565b80356001600160a01b0381168114610f2957600080fd5b60008060408385031215610f7a57600080fd5b610f8383610f17565b9150610f9160208401610f50565b90509250929050565b6000815180845260005b81811015610fc057602081850181015186830182015201610fa4565b81811115610fd2576000602083870101525b50601f01601f19169290920160200192915050565b6001600160a01b038d811682528c811660208301528b16604082015289151560608201528815156080820152600061018060a083015261102b61018083018a610f9a565b82810360c084015261103d818a610f9a565b905082810360e08401526110518189610f9a565b91505085610100830152846101208301528361014083015261107a61016083018461ffff169052565b9d9c50505050505050505050505050565b602081526000610f496020830184610f9a565b600080604083850312156110b157600080fd5b6110ba83610f50565b946020939093013593505050565b60008083601f8401126110da57600080fd5b50813567ffffffffffffffff8111156110f257600080fd5b60208301915083602082850101111561110a57600080fd5b9250929050565b60008060008060008060008060008060e08b8d03121561113057600080fd5b6111398b610f17565b995060208b013567ffffffffffffffff8082111561115657600080fd5b6111628e838f016110c8565b909b50995060408d013591508082111561117b57600080fd5b6111878e838f016110c8565b909950975060608d01359150808211156111a057600080fd5b506111ad8d828e016110c8565b90965094505060808b0135925060a08b013591506111cd60c08c01610f17565b90509295989b9194979a5092959850565b600181811c908216806111f257607f821691505b60208210810361121257634e487b7160e01b600052602260045260246000fd5b50919050565b634e487b7160e01b600052601160045260246000fd5b6000821982111561124157611241611218565b500190565b634e487b7160e01b600052603260045260246000fd5b60006001820161126e5761126e611218565b506001019056fea2646970667358221220e103e37b2142c6fe4b0601ac06f4e86b309bb1b36bc02c0375310f690a7ba25764736f6c634300080e0033",
    "sourcePath": "c:/Users/eres-/Documents/Tec/7mo8voy9nosemestre/Cryptology/CryptoRide/CryptoRide.sol",
    "compiler": {
        "name": "solc",
        "version": "0.8.14+commit.80d49f37"
    },
    "functionHashes": {
        "bidForRide(uint16)": "50e4dfa6",
        "driverToIds(address,uint256)": "7238d50d",
        "getAvSeats(uint16)": "7598b925",
        "getAvailable(uint16)": "7b9db006",
        "getBaseCost(uint16)": "3e78e81f",
        "getBid(uint16,address)": "7c336569",
        "getBiddingEndTime(uint16)": "5d53f937",
        "getBiddingTime(uint16)": "f429568c",
        "getDriver(uint16)": "11c83719",
        "getFromTime(uint16)": "d974add5",
        "getHighestBidder(uint16)": "22b473d2",
        "getLocation(uint16)": "d18db889",
        "getPayed(uint16)": "f7acbe2e",
        "getPreviousBid(uint16,address)": "21f77dac",
        "getRider(uint16)": "79a64ca5",
        "getToTime(uint16)": "68e14cd8",
        "idToRide(uint16)": "2f0cfec0",
        "publishRide(uint16,string,string,string,uint256,uint256,uint16)": "f5cee0ca",
        "startRide(uint16)": "7aa7d1d8"
    },
    "gasEstimates": {
        "creation": {
            "codeDepositCost": "955800",
            "executionCost": "994",
            "totalCost": "956794"
        },
        "external": {
            "bidForRide(uint16)": "88963",
            "driverToIds(address,uint256)": "6531",
            "getAvSeats(uint16)": "2563",
            "getAvailable(uint16)": "2623",
            "getBaseCost(uint16)": "2545",
            "getBid(uint16,address)": "infinite",
            "getBiddingEndTime(uint16)": "2589",
            "getBiddingTime(uint16)": "2588",
            "getDriver(uint16)": "2574",
            "getFromTime(uint16)": "infinite",
            "getHighestBidder(uint16)": "2618",
            "getLocation(uint16)": "infinite",
            "getPayed(uint16)": "2655",
            "getPreviousBid(uint16,address)": "infinite",
            "getRider(uint16)": "2595",
            "getToTime(uint16)": "infinite",
            "idToRide(uint16)": "infinite",
            "publishRide(uint16,string,string,string,uint256,uint256,uint16)": "infinite",
            "startRide(uint16)": "infinite"
        }
    }
}